:100000000C94F6000C9413010C9413010C9413013E
:100010000C9413010C9413010C9489050C94130196
:100020000C9413010C9413010C9413010C947A0595
:100030000C9413010C9413010C9413010C941301F0
:100040000C9413010C9413010C9413010C941301E0
:100050000C9413010C9413010C9413010C941301D0
:100060000C9413010C94130107634236B79BD8A775
:100070001A39685618AEBAAB558C1D3CB7CC5763CD
:10008000BD6DEDFD753EF6177231BF000000803F7B
:1000900008000000BE922449123EABAAAA2ABECD97
:1000A000CCCC4C3E00000080BEABAAAAAA3E000009
:1000B0000000BF000000803F000000000008417801
:1000C000D3BB4387D1133D190E3CC3BD4282AD2B38
:1000D0003E68EC8276BED98FE1A93E4C80EFFFBE30
:1000E00001C4FF7F3F00000000006E616E00696E7A
:1000F000660000407A10F35A00A0724E18090010F2
:10010000A5D4E80000E87648170000E40B5402008C
:1001100000CA9A3B000000E1F505000080969800B7
:10012000000040420F000000A086010000001027E0
:1001300000000000E8030000000064000000000070
:100140000A00000000000100000000002C76D888A2
:10015000DC674F0823DFC1DFAE59E1B1B796E5E3B5
:10016000E453C63AE651997696E8E6C28426EB89CE
:100170008C9B62ED407C6FFCEFBC9C9F40F2BAA56B
:100180006FA5F490055A2AF75C936B6CF9676DC103
:100190001BFCE0E40D47FEF520E6B500D0ED902E07
:1001A0000300943577050080841E080000204E0A65
:1001B000000000C80C333333330F986E12831141A3
:1001C000EF8D2114893BE65516CFFEE6DB18D1846E
:1001D0004B381BF77C1D901DA4BBE4242032847295
:1001E0005E228100C9F124ECA1E53D2711241FBE48
:1001F000CFEFD8E0DEBFCDBF11E0A0E0B1E0E4E892
:10020000F2E202C005900D92A43EB107D9F721E0B9
:10021000A4EEB1E001C01D92AE3FB207E1F70E942B
:100220009E050C9440110C940000CF93C82F0E949F
:10023000AC078EEE0E94BF078C2F0E94BF070E9462
:10024000AC078FEE0E94BF070E94D307C82F0E9401
:10025000B7078C2FCF910895CF93DF93D82FC62F58
:100260000E94AC078EEE0E94BF078D2F0E94BF0731
:100270008C2F0E94BF070E94B707DF91CF9108958E
:10028000CF93DF93C82F0E94AC078EEE0E94BF076A
:100290008C2F0E94BF070E94AC078FEE0E94BF0701
:1002A0000E94C907C82FD0E0DC2FCC270E94D307BB
:1002B000C82B0E94B707CE01DF91CF910895EF922E
:1002C000FF921F93CF93DF93CDB7DEB766970FB63C
:1002D000F894DEBF0FBECDBF2FE38DE093E0215039
:1002E00080409040E1F700C0000010E00AC080EDBF
:1002F0000E94150183EC99E00197F1F700C000001E
:100300001F5F1530A0F30E94AC078EEE0E94BF075E
:100310008AEA0E94BF070E94AC078FEE0E94BF07C7
:1003200010E00CC0E12EF12C0E94C907E1E0F0E0E2
:10033000EC0FFD1FEE0DFF1D80831F5F153190F345
:100340000E94D307182F0E94B707898190E0982F49
:1003500088272A81822B9093FB018093FA018B815D
:1003600090E0982F88272C81822B9093F90180931D
:10037000F8018D8190E0982F88272E81822B909311
:10038000F7018093F6018F8190E0982F88272885C8
:10039000822B9093ED018093EC01898590E0982F5A
:1003A00088272A85822B9093EB018093EA018B8525
:1003B00090E0982F88272C85822B9093E9018093D9
:1003C000E8018D8590E0982F88272E85822B9093C9
:1003D000F5018093F4018F8590E0982F8827288974
:1003E000822B9093F3018093F2018B8990E0982FF8
:1003F00088272C89822B9093F1018093F0018D89BD
:1004000090E0982F8827812B9093EF018093EE0145
:1004100066960FB6F894DEBF0FBECDBFDF91CF91C9
:100420001F91FF90EF9008954F925F926F927F928D
:100430008F929F92AF92BF92CF92DF92EF92FF92F4
:100440000F931F93CF93DF9300D000D000D0CDB790
:10045000DEB72091FA013091FB012F5F3F4F223030
:10046000310558F4FC011082118212821382FB01C3
:100470001082118212821382B2C17E836D838C013D
:100480006EE284EF0E942C0181EE94E00197F1F777
:1004900000C0000086EF0E944001AC0160E070E007
:1004A0008091E8019091E9019A01AB01281B390B79
:1004B00041095109A091EA01B091EB010E94330F6B
:1004C0006B017C01992334F4EFEFCE0EEFE7DE1ED3
:1004D000E11CF11C0B2EBFE0F594E794D794C79470
:1004E000BA95D1F7B02D6091F0017091F101CB0177
:1004F000770FAA0BBB0BBC01CD01052E5BE0660F8D
:10050000771F881F991F5A95D1F7502D2091EE0122
:100510003091EF014901330FAA08BB08A5019401EE
:100520002C0D3D1D4E1D5F1D0E94140FD701C601ED
:10053000820F931FA41FB51F8093E4019093E501E0
:10054000A093E601B093E7010896A11DB11DBC017F
:10055000CD01689413F895958795779567951694CE
:10056000D1F70E94C30820E030E040E251E40E944D
:100570004F08F801608371838283938364E384EF7F
:100580000E942C018FEC97E00197F1F700C000006A
:1005900086EF0E9440014C01A12CB12CBA2CA92C51
:1005A000982C882488EF0E941501892C9A2CAB2C5A
:1005B000BB244090E4015090E5016090E60170900A
:1005C000E70190EA491A9FE0590A61087108A301FE
:1005D0009201C301B2010E94E20E9B01AC01012E07
:1005E0001CE055954795379527951A95D1F7102D0D
:1005F00029833A834B835C83A091F201B091F3018C
:100600000E943E0F6B017C010B2EBBE0F594E7943A
:10061000D794C794BA95D1F7B02DA091F801B091B5
:10062000F901A30192010E943E0FDC01CB01072ECC
:100630007BE0B595A795979587957A95D1F7702D1D
:10064000C80ED91EEA1EFB1E8091FA019091FB0193
:10065000092E000CAA0BBB0B880F991FAA1FBB1FEA
:10066000880F991FAA1FBB1FC80ED91EEA1EFB1EAA
:1006700032E0C30ED11CE11CF11CF594E794D79431
:10068000C794F594E794D794C794A091F601B091DC
:10069000F701A30192010E943E0F2B013C01032EA2
:1006A0003DE075946794579447943A95D1F7302D6F
:1006B000A091F401B091F50129813A814B815C81CF
:1006C0000E943E0FBB2797FDB095AB2F840D951D63
:1006D000A61DB71D0296A11DB11DB595A7959795AD
:1006E0008795B595A795979587959C01AD0130584D
:1006F0004F4F5F4FA091EC01B091ED010E94330F7D
:100700002B013C01032E3FE0769467945794479465
:100710003A95D1F7302DA50194012C193D094E09C8
:100720005F09A0E5B3EC0E94330F99235CF0660FDC
:10073000771F881F991FA30192010E94F20E690181
:100740007A010AC0A30192010E94F20E69017A01A6
:10075000CC0CDD1CEE1CFF1C9927F7FC9A958F2D05
:100760007E2D6D2D9B01AC010E94E20E9B01AC0120
:10077000AEEDBBE00E94330F4C01BB2497FCB0945C
:10078000AB2CA3E4B3EEA70196010E94410FBB2757
:1007900097FDB095AB2F880D991DAA1DBB1D8153E8
:1007A000914FAF4FBF4F689413F8B595A7959795A4
:1007B00087951694D1F7BC01CD016C0D7D1D8E1D62
:1007C0009F1D0E94C30820E030E048EC52E40E94E4
:1007D0004F08ED81FE816083718382839383269627
:1007E0000FB6F894DEBF0FBECDBFDF91CF911F9142
:1007F0000F91FF90EF90DF90CF90BF90AF909F90C0
:100800008F907F906F905F904F900895982F929562
:100810009F70990F292F220F220F920F8F70890F2F
:1008200008950E94AC0780ED0E94BF0780E00E94FF
:10083000BF0780E00E94BF070E94B7070895CF93CB
:10084000DF93EC010E94AC0780ED0E94BF0780E0BF
:100850000E94BF070E94B7070E94AC0781ED0E946B
:10086000BF070E94C9078F770E94060488830E94F1
:10087000C9070E94060489830E94D3070E940604C8
:100880008A830E94B707DF91CF910895CF93DF93BA
:10089000EC010E94AC0780ED0E94BF0783E00E943C
:1008A000BF070E94B7070E94AC0781ED0E94BF07F7
:1008B0000E94C9070E9406048C830E94C9070E94F7
:1008C000060488830E94C9070E94060489830E9447
:1008D000D3070E94060490E08053984F9B838A833D
:1008E0000E94B707DF91CF910895CF93C82F0E9440
:1008F000AC078EE40E94BF078C2F0E94BF070E94A6
:10090000B707CF910895CF93807F862BC82FC860FB
:100910008C600E94750400008C2F8B7F0E947504F0
:1009200080E18A95F1F700C0CF910895CF93DF93CE
:10093000C82FD62F807F0E9483046D2F8C2F829525
:10094000807F0E948304DF91CF91089560E00E9430
:10095000960483EF91E00197F1F700C0000008953D
:1009600081E00E94A60483EF91E00197F1F700C0B7
:1009700000000895E62FF0E0EC5FFE4F9081890FB4
:1009800080680E94A60408958FE097E20197F1F72E
:1009900000C0000060E080E30E94830481EE94E0E8
:1009A0000197F1F700C0000060E080E30E9483043B
:1009B00092E39A95F1F760E080E20E94830488E276
:1009C0000E94A6048CE00E94A60486E00E94A60471
:1009D0000E94B0040895CF93DF93EC0104C02196E8
:1009E00061E00E94960488818111F9CFDF91CF9157
:1009F0000895CF93DF93CDB7DEB7A0970FB6F894E5
:100A0000DEBF0FBECDBF9E012B5D3F4FF90141916F
:100A100051919F0160E270E0CE0101960E94B610F4
:100A2000CE0101960E94EB04A0960FB6F894DEBFAB
:100A30000FBECDBFDF91CF910895F89484B7877F23
:100A400084BFE0E6F0E088E1808386E480837894E8
:100A5000089580E480937C0083E880937A00089571
:100A6000ECE7F0E09081907F8F70892B8083EAE73C
:100A7000F0E080818064808380917A0086FDFCCFE5
:100A800080917800909179000895109280008DE017
:100A90008093810088EE91E0909389008093880094
:100AA00082E080936F000895EFE6F0E080818D7F13
:100AB00080830895EFE6F0E080818260808308956E
:100AC000CF93C82F1092FD010E94540583B7817FF8
:100AD000846083BF07C083B7816083BF889583B775
:100AE0008E7F83BF8091FD018C17A8F30E945A0569
:100AF000CF9108951F920F920FB60F9211248F93EA
:100B000083B1806183B98F910F900FBE0F901F90BA
:100B100018951F920F920FB60F9211248F93809108
:100B2000FD018F3F29F08091FD018F5F8093FD01D2
:100B30008F910F900FBE0F901F901895CF93DF935A
:100B4000CDB7DEB764970FB6F894DEBF0FBECDBF4A
:100B500084B1816084B984B1806184B985B18E7FAC
:100B600085B985B18F7E85B984B18B7F84B985B114
:100B7000846085B984B1826084B985B18D7F85B97F
:100B80000E94A3070E94C4040E945F010E942905DD
:100B90000E941104789481E00E941D050E94450581
:100BA00019821A821B821C8260E071E0CE010196DC
:100BB0000E9414020E94B00460E080E00E94BA0427
:100BC00088E091E00E94EB0461E080E00E94BA04BA
:100BD000809103018F93809102018F938091010195
:100BE0008F93809100018F938CE191E09F938F937D
:100BF0000E94F9042FE936E881E02150304080401E
:100C0000E1F700C000001D821E821F82188619862F
:100C10001A861B861C860F900F900F900F900F90D6
:100C20000F90812C912C5401BE01675F7F4FCE0144
:100C300005960E94140269857A858B859C85209192
:100C400000013091010140910201509103010E9485
:100C50004F0821E03EED42E45EE30E94E0099B0183
:100C6000AC0160E070E080E89FE30E94DD0720E0D7
:100C70003AE24DE257E40E947309262E172F082FFF
:100C8000792E80E00E943005BC0180E090E00E9457
:100C9000C10820E030E44CE955E40E94730920E0EB
:100CA00030EC4FE754E40E944F0820E030E040E28F
:100CB00051E40E944F08662E572E482E392E1A995D
:100CC00004C085B1826085B903C085B18D7F85B9C7
:100CD0008091FC018111E2C00E94B00460E080E0DC
:100CE0000E94BA048C858F938B858F938A858F930E
:100CF00089858F9388858F938F818F938E818F9332
:100D00008D818F938AE291E09F938F930E94F904E3
:100D100061E080E00E94BA04C984DA84EB84FC8438
:100D20000FB6F894DEBF0FBECDBF20E030E049E73C
:100D300054E4C701B6010E944A0888232CF48EE3CC
:100D400091E00E94EB0422C020E030E04BE754E445
:100D5000C701B6010E944A0888232CF480E591E07F
:100D60000E94EB0413C020E030E84CE754E4C701D4
:100D7000B6010E944A0888232CF48DE591E00E9478
:100D8000EB0404C08CE691E00E94EB0461E08EE08D
:100D90000E94BA042AE939E949E95EE3C501B401D0
:100DA0000E94DE07C984DA84EB84FC84A7019601E3
:100DB0000E944A0888232CF487E791E00E94EB0404
:100DC00019C02AE939E949E95EE3C501B4010E9485
:100DD000DD079B01AC01C701B6010E944A088823C8
:100DE0002CF489E791E00E94EB0404C08BE791E0CA
:100DF0000E94EB0489849A84AB84BC8462E080E026
:100E00000E94BA043F924F925F926F928DE791E0F9
:100E10009F938F930E94F90463E080E00E94BA04DC
:100E20007F920F931F932F928FE891E09F938F9360
:100E30000E94F90469857A858B859C850FB6F894A4
:100E4000DEBF0FBECDBF20E030E04AE754E40E9491
:100E50004A088823DCF01EC085B1816085B93FE572
:100E60008AEE20E0315080402040E1F700C00000D1
:100E700085B18E7F85B93FE58AEE20E03150804014
:100E80002040E1F700C000009F5F01C090E0953076
:100E900018F34FC085B18E7F85B94BC0CE01429605
:100EA0000E941F04CE010D960E9446040E94B004C9
:100EB00060E080E00E94BA049E858D8528892F938A
:100EC0002F852F931F929F931F928F9380EA91E01B
:100ED0009F938F930E94F90461E080E00E94BA041E
:100EE0002A899B898C891F922F931F929F931F920F
:100EF0008F9385EB91E09F938F930E94F90462E0BA
:100F000080E00E94BA0489891F928F938AEC91E055
:100F10009F938F930E94F90463E080E00E94BA04DB
:100F200085ED91E00E94EB040FB6F894DEBF0FBE92
:100F3000CDBF8AE00E9460059091FC0181E0892785
:100F40008093FC0171CE1092B9008CE08093B800C0
:100F500084E08093BC00089584EA8093BC00809173
:100F6000BC008823E4F78091B900887F089584E964
:100F70008093BC008091BC0084FDFCCF08958093D9
:100F8000BB0084E88093BC008091BC008823E4F718
:100F9000089584EC8093BC008091BC008823E4F722
:100FA0008091BB00089584E88093BC008091BC00D0
:100FB0008823E4F78091BB0008955058BB27AA27E7
:100FC0000E94F5070C9439090E942B0938F00E9401
:100FD000320920F039F49F3F19F426F40C942809C3
:100FE0000EF4E095E7FB0C942209E92F0E944A09D0
:100FF00058F3BA17620773078407950720F079F44E
:10100000A6F50C946C090EF4E0950B2EBA2FA02DCA
:101010000B01B90190010C01CA01A0011124FF27A5
:10102000591B99F0593F50F4503E68F11A16F040A0
:10103000A22F232F342F4427585FF3CF469537959F
:101040002795A795F0405395C9F77EF41F16BA0B64
:10105000620B730B840BBAF09150A1F0FF0FBB1F12
:10106000661F771F881FC2F70EC0BA0F621F731F5B
:10107000841F48F4879577956795B795F7959E3FB8
:1010800008F0B0CF9395880F08F09927EE0F979549
:10109000879508950E94FE0808F481E008950E9453
:1010A00063080C9439090E94320958F00E942B09F8
:1010B00040F029F45F3F29F00C94220951110C945F
:1010C0006D090C9428090E944A0968F39923B1F329
:1010D000552391F3951B550BBB27AA27621773075E
:1010E000840738F09F5F5F4F220F331F441FAA1FF2
:1010F000A9F335D00E2E3AF0E0E832D091505040AE
:10110000E695001CCAF72BD0FE2F29D0660F771F5B
:10111000881FBB1F261737074807AB07B0E809F041
:10112000BB0B802DBF01FF2793585F4F3AF09E3FC6
:10113000510578F00C9422090C946D095F3FE4F39B
:10114000983ED4F3869577956795B795F7959F5F09
:10115000C9F7880F911D9695879597F90895E1E055
:10116000660F771F881FBB1F621773078407BA07B4
:1011700020F0621B730B840BBA0BEE1F88F7E0950F
:101180000895E89409C097FB3EF49095809570957A
:1011900061957F4F8F4F9F4F9923A9F0F92F96E9C3
:1011A000BB279395F695879577956795B795F11138
:1011B000F8CFFAF4BB0F11F460FF1BC06F5F7F4FD5
:1011C0008F4F9F4F16C0882311F096E911C07723E7
:1011D00021F09EE8872F762F05C0662371F096E8F0
:1011E000862F70E060E02AF09A95660F771F881FBF
:1011F000DAF7880F9695879597F90895990F000863
:10120000550FAA0BE0E8FEEF16161706E807F907D8
:10121000C0F012161306E407F50798F0621B730B73
:10122000840B950B39F40A2661F0232B242B252BF4
:1012300021F408950A2609F4A140A6958FEF811D97
:10124000811D089597F99F6780E870E060E0089538
:101250009FEF80EC089500240A94161617061806CE
:101260000906089500240A941216130614060506AA
:101270000895092E0394000C11F4882352F0BB0F3B
:1012800040F4BF2B11F460FF04C06F5F7F4F8F4F9E
:101290009F4F089557FD9058440F551F59F05F3FD9
:1012A00071F04795880F97FB991F61F09F3F79F088
:1012B00087950895121613061406551FF2CF46950A
:1012C000F1DF08C0161617061806991FF1CF86958C
:1012D0007105610508940895E894BB276627772770
:1012E000CB0197F908950E9486090C9439090E9450
:1012F0002B0938F00E94320920F0952311F00C944C
:1013000022090C94280911240C946D090E944A09A1
:1013100070F3959FC1F3950F50E0551F629FF00148
:10132000729FBB27F00DB11D639FAA27F00DB11D61
:10133000AA1F649F6627B00DA11D661F829F2227EA
:10134000B00DA11D621F739FB00DA11D621F839F71
:10135000A00D611D221F749F3327A00D611D231F47
:10136000849F600D211D822F762F6A2F11249F5795
:1013700050409AF0F1F088234AF0EE0FFF1FBB1F98
:10138000661F771F881F91505040A9F79E3F510557
:1013900080F00C9422090C946D095F3FE4F3983EB1
:1013A000D4F3869577956795B795F795E7959F5F01
:1013B000C1F7FE2B880F911D9695879597F9089593
:1013C000FA01EE0FFF1F309621053105A1F16115DD
:1013D000710561F48038BFE39B0749F16894903848
:1013E000810561F08038BFEF9B0741F099234AF5F2
:1013F000FF3FE1053105210519F1E8940894E795CF
:10140000D901AA2329F4AB2FBE2FF85FD0F310C067
:10141000FF5F70F4A695E0F7F73950F019F0FF3A46
:1014200038F49F779F930DD00F9007FC9058089544
:1014300046F00C94280960E070E080E89FE308958E
:101440004FE79F775F934F933F932F930E94DB0A61
:101450002F913F914F915F910E9473090C94380A2C
:1014600029F416F00C9422090C946C090C942809A8
:101470000E945209A8F39638A0F707F80F92E89453
:101480002BE33AEA48EB5FE70E9489090F920F923B
:101490000F924DB75EB70F920E94230BE8E6F0E083
:1014A0000E946A0A4F915F91EF91FF91E595EE1FBF
:1014B000FF1F49F0FE57E0684427EE0F441FFA95DE
:1014C000E1F74195550B0E949D0A0F9007FE0C9481
:1014D000910A0895DF93CF931F930F93FF92EF929A
:1014E000DF927B018C01689406C0DA2EEF010E9426
:1014F0008609FE01E894A591259135914591559174
:10150000A6F3EF010E94F507FE019701A801DA9406
:1015100069F7DF90EF90FF900F911F91CF91DF91CE
:1015200008959B01AC0160E070E080E89FE30C94BB
:101530004F080C9422090C94570B0E945209D8F3BF
:101540009923C9F3940F511DA3F39150504094F087
:1015500059F0882332F0660F771F881F9150504052
:10156000C1F79E3F51052CF7880F911D96958795E1
:1015700097F908955F3FACF0983E9CF0BB278695A5
:1015800077956795B79508F4B1609395C1F7BB0F50
:1015900058F711F460FFE8CF6F5F7F4F8F4F9F4F79
:1015A000E3CF0C946D0916F00C94570B0C9428099A
:1015B00068940C9422090E945209A8F39923C1F35C
:1015C000AEF3DF93CF931F930F93FF92C92FDD27C5
:1015D00088232AF02197660F771F881FDAF720E00B
:1015E00030E040E85FEB9FE3883920F0803E38F040
:1015F00021968F770E94DE07E0E9F0E004C00E94A8
:10160000DE07EDEBF0E00E946A0A8B01BE01EC01FF
:10161000FB2E6F5771097595771F880B990B0E94E8
:10162000C30828E132E741E35FE30E948609AF2D5A
:101630009801AE01FF900F911F91CF91DF910E9411
:10164000F5070C943909FA01DC01AA0FBB1F9B01B5
:10165000AC01BF5728F4222733274427507820C0F5
:10166000B75190F4AB2F0024469537952795011C70
:10167000A395D2F3002071F0220F331F441FB395BE
:10168000DAF30ED00C94DD0761307105A0E88A070B
:10169000B94630F49B01AC016627772788279078FC
:1016A000309621F0208331834283538308959F3FF6
:1016B00031F0915020F4879577956795B795880F0D
:1016C000911D9695879597F90895A0E1B0E0EBE616
:1016D000FBE00C94460F7C011B016A01FC011782A0
:1016E0001682838181FF44C39E012F5F3F4F3901E2
:1016F000F7019381F10193FD859193FF81911F0182
:10170000882309F431C3853239F493FD859193FF21
:1017100081911F01853239F4B70190E00E947A105F
:1017200056016501E5CF10E0512C912CFFE1F91530
:10173000D8F08B3279F038F4803279F08332A1F42A
:10174000F92DF0612EC08D3261F0803369F4292DBE
:1017500021602DC0392D3260932E892D8460982E02
:101760002AC0E92DE86015C097FC2DC020ED280F98
:101770002A3088F496FE06C03AE0139F200D11240B
:10178000122F19C08AE0589E200D1124522EE92DE7
:10179000E0629E2E10C08E3231F496FCE5C2F92D27
:1017A000F0649F2E08C08C3621F4292D2068922EDB
:1017B00002C0883641F4F10193FD859193FF819138
:1017C0001F018111B3CF9BEB980F933020F4992D1B
:1017D0009061805E07C09BE9980F933008F066C166
:1017E000992D9F7E96FF16E09F73992E853619F4EA
:1017F0009064992E08C0863621F4392F3068932ED4
:1018000002C01111115097FE07C01C3350F444243C
:101810004394410E27E00BC0183038F027E017E062
:1018200005C027E09CE3492E02C0212F412C560120
:1018300084E0A80EB11CF6016081718182819381E0
:10184000042DA3010E948C0F6C01F981FC87F0FF2D
:1018500002C0F3FF06C091FC06C092FE06C000E283
:1018600005C00DE203C00BE201C000E08C858C7066
:1018700019F001115AC29BC297FE10C04C0CFC8596
:10188000F4FF04C08A81813309F44A94141474F576
:1018900028E0241578F588E0482E2CC096FC2AC054
:1018A000812F90E08C159D059CF03CEFC3163FEF17
:1018B000D30674F0892D8068982E0AC0E2E0F0E02B
:1018C000EC0FFD1FE10FF11D8081803319F41150E1
:1018D0001111F4CF97FE0EC044244394410E812F82
:1018E00090E0C816D9062CF41C1904C04424439473
:1018F00001C010E097FE06C01C141D0434F4C6019C
:10190000019605C085E090E002C081E090E0011101
:101910000196112331F0212F30E02F5F3F4F820FCE
:10192000931F252D30E08217930714F4581A01C035
:10193000512C892D897049F4552039F0B70180E286
:1019400090E00E947A105A94F7CF002329F0B70153
:10195000802F90E00E947A1093FC09C0552039F046
:10196000B70180E390E00E947A105A94F7CF97FE77
:101970004CC04601D7FE02C0812C912CC6018819AB
:101980009909F301E80FF91FFE87ED8796012419E5
:101990003109388B2F87012F10E01195019511091E
:1019A0003FEF8316930629F4B7018EE290E00E9480
:1019B0007A10C814D9044CF08F8598898815990538
:1019C00024F4ED85FE85818101C080E3F1E08F1A6A
:1019D00091082D853E852F5F3F4F3E872D878016CE
:1019E00091062CF0B70190E00E947A10D9CFC8146C
:1019F000D90441F49A81963320F4953319F43C8547
:101A000034FF81E3B70190E04EC08A81813319F041
:101A10009C859F7E9C87B70190E00E947A101111EF
:101A200005C094FC18C085E690E017C0B7018EE2AF
:101A300090E00E947A101E5F82E001E0080FF3013F
:101A4000E80FF11D8081B70190E00E947A10802F8D
:101A50000113F3CFE6CF85E490E0B7010E947A103E
:101A6000D7FC06C0C114D10441F4EC85E4FF05C0E5
:101A7000D194C194D1088DE201C08BE2B70190E00E
:101A80000E947A1080E32AE0C216D1042CF08F5F06
:101A9000FAE0CF1AD108F7CFB70190E00E947A1090
:101AA000B701C601C0960E947A1054C1833631F046
:101AB000833779F0833509F056C020C0560132E0F3
:101AC000A30EB11CF6018081898301E010E063015F
:101AD00012C05601F2E0AF0EB11CF601C080D180F9
:101AE00096FE03C0612F70E002C06FEF7FEFC6016A
:101AF0000E946F108C01F92DFF7714C0560122E06F
:101B0000A20EB11CF601C080D18096FE03C0612FE9
:101B100070E002C06FEF7FEFC6010E9464108C017D
:101B2000F92DF0689F2EF3FD1AC0852D90E008175F
:101B30001907A8F4B70180E290E00E947A105A9445
:101B4000F4CFF60197FC859197FE81916F01B70163
:101B500090E00E947A1051105A9401501109011519
:101B6000110579F7F7C0843611F0893661F5560111
:101B700097FE09C024E0A20EB11CF60160817181BC
:101B8000828193810AC0F2E0AF0EB11CF601608140
:101B90007181072E000C880B990BF92DFF769F2E73
:101BA00097FF09C090958095709561957F4F8F4FF5
:101BB0009F4FF0689F2E2AE030E0A3010E94E210C0
:101BC000C82EC6183FC0092D853721F40F7E2AE0A4
:101BD00030E01DC0097F8F3691F018F4883559F038
:101BE000C3C0803719F0883711F0BEC0006104FF10
:101BF00009C0046007C094FE08C0066006C028E063
:101C000030E005C020E130E002C020E132E05601C2
:101C100007FF09C084E0A80EB11CF6016081718144
:101C20008281938108C0F2E0AF0EB11CF6016081A1
:101C3000718180E090E0A3010E94E210C82EC618D6
:101C40000F77902E96FE0BC0092D0E7FC11650F413
:101C500094FE0AC092FC08C0092D0E7E05C0DC2C43
:101C6000092D03C0DC2C01C0D12E04FF0DC0FE01E4
:101C7000EC0DF11D8081803311F4097E09C002FF53
:101C800006C0D394D39404C0802F867809F0D394EF
:101C900003FD11C000FF06C01C2DD51480F4150DE6
:101CA0001D190DC0D51458F4B70180E290E00E94D0
:101CB0007A10D394F7CFD51410F45D1801C0512CCD
:101CC00004FF10C0B70180E390E00E947A1002FF89
:101CD00017C001FD03C088E790E002C088E590E0EE
:101CE000B7010CC0802F867859F001FF02C08BE24B
:101CF00001C080E207FD8DE2B70190E00E947A10FA
:101D0000C11638F4B70180E390E00E947A101150B8
:101D1000F7CFCA94F301EC0DF11D8081B70190E07B
:101D20000E947A10C110F5CF15C0F4E0F51560F5EA
:101D300084E0581A93FE1FC0011127C02C8523FF91
:101D40002AC00AEE10E0392D3071932EF8018491EB
:101D5000811124C0552009F4E4CCB70180E290E061
:101D60000E947A105A94F6CFF7018681978126C097
:101D70008FEF9FEF23C0B70180E290E00E947A10BE
:101D80005A945110F8CFD8CF512CB701802F90E042
:101D90000E947A10D3CF0EEE10E0D5CF9110805272
:101DA000B70190E00E947A100F5F1F4FCFCF23E062
:101DB000251510F483E0BDCF512CC0CF6096E2E131
:101DC0000C94620FDB018F939F930E94330FBF919E
:101DD000AF91A29F800D911DA39F900DB29F900D7A
:101DE00011240895A1E21A2EAA1BBB1BFD010DC0F0
:101DF000AA1FBB1FEE1FFF1FA217B307E407F507BB
:101E000020F0A21BB30BE40BF50B661F771F881F96
:101E1000991F1A9469F760957095809590959B012C
:101E2000AC01BD01CF010895052E97FB1EF400946F
:101E30000E942B0F57FD07D00E94F20E07FC03D023
:101E40004EF40C942B0F50954095309521953F4FB3
:101E50004F4F5F4F089590958095709561957F4F96
:101E60008F4F9F4F08950E947D0FA59F900DB49FA7
:101E7000900DA49F800D911D11240895B7FF0C941F
:101E8000330F0E94330F821B930B08952F923F92C2
:101E90004F925F926F927F928F929F92AF92BF927A
:101EA000CF92DF92EF92FF920F931F93CF93DF9326
:101EB000CDB7DEB7CA1BDB0B0FB6F894DEBF0FBE83
:101EC000CDBF09942A88398848885F846E847D84D0
:101ED0008C849B84AA84B984C884DF80EE80FD80D2
:101EE0000C811B81AA81B981CE0FD11D0FB6F89448
:101EF000DEBF0FBECDBFED010895A29FB001B39F1D
:101F0000C001A39F700D811D1124911DB29F700D02
:101F1000811D1124911D0895283008F027E03327F2
:101F2000DA01990F311D87FD9160009661057105F9
:101F300039F432602E5F3D9330E32A95E1F708953E
:101F40009F3F30F080387105610509F03C5F3C5FD0
:101F50003D93913008F08068911DDF93CF931F93DC
:101F60000F93FF92EF92192F987F9695E92F9695F0
:101F70009695E90FFF27E45BFE4F99273327EE2460
:101F8000FF24A701E70105900894079428F4360F71
:101F9000E71EF81E491F511D660F771F881F991FE6
:101FA0000694A1F70590079428F4E70EF81E491F40
:101FB000561FC11D770F881F991F661F0694A1F732
:101FC0000590079428F4F80E491F561FC71FD11D0E
:101FD000880F991F661F771F0694A1F70590079435
:101FE00020F4490F561FC71FD81F990F661F771F70
:101FF000881F0694A9F784911095177041F0D69523
:10200000C79557954795F794E7941A95C1F7E2EF6E
:10201000F0E0689415901591359165919591059032
:102020007FE27395E118F10A430B560BC90BD009F7
:10203000C0F7E10CF11E431F561FC91FD01D7EF4CF
:10204000703311F48A95E6CFE894015030F0080F10
:102050000AF40027021708F4202F2395022F7A3361
:1020600028F079E37D932A95E9F710C07D932A95AE
:1020700089F6069497956795379517951794E11803
:10208000F10A430B560BC90BD00998F023957E91AA
:1020900073957A3308F070E37C932013B8F77E9140
:1020A00070617D9330F0839571E37D9370E32A95A1
:1020B000E1F71124EF90FF900F911F91CF91DF91E5
:1020C000992787FD90950895FC0105906150704017
:1020D0000110D8F7809590958E0F9F1F0895FC01F1
:1020E0006150704001900110D8F7809590958E0F47
:1020F0009F1F08950F931F93CF93DF93FB012381BD
:1021000021FD03C08FEF9FEF2CC022FF16C0468138
:102110005781248135814217530744F4A081B1814E
:102120009D012F5F3F4F318320838C932681378120
:102130002F5F3F4F3783268314C08B01EC01FB01D7
:102140000084F185E02D0995892BE1F6D8011696DA
:102150008D919C911797019617969C938E93169745
:10216000CE01DF91CF911F910F910895AEE0B0E0C5
:10217000ECEBF0E10C94540F8C01FA0186E08C83B7
:102180001A83098377FF02C060E070E8CB010197F2
:102190009E838D83A901BF01CE0101960E94650B2C
:1021A0004D815E8157FD0AC02F8138854217530744
:1021B0000CF49A01F801E20FF31F10822E96E4E06E
:1021C0000C94700FFA01AA27283051F1203181F1C7
:1021D000E8946F936E7F6E5F7F4F8F4F9F4FAF4F2F
:1021E000B1E03ED0B4E03CD0670F781F891F9A1F42
:1021F000A11D680F791F8A1F911DA11D6A0F711DF6
:10220000811D911DA11D20D009F468943F912AE001
:10221000269F11243019305D3193DEF6CF010895E9
:10222000462F4770405D4193B3E00FD0C9F7F6CF1A
:10223000462F4F70405D4A3318F0495D31FD4052E2
:10224000419302D0A9F7EACFB4E0A6959795879578
:1022500077956795BA95C9F7009761057105089557
:102260009B01AC010A2E0694579547953795279503
:10227000BA95C9F7620F731F841F951FA01D08959B
:04228000F894FFCF00
:1022840000507D440040145443616C696272616E75
:10229400646F20416C746974756465005265663AB4
:1022A40020252E32662068506100543A25342E31A0
:1022B400664320503A25342E3066685061005465D8
:1022C4006D706F3A2054656D706573746164650058
:1022D40054656D706F3A2043687576610054656D7E
:1022E400706F3A204E75626C61646F0054656D7056
:1022F4006F3A20536F6C005E0076002D0054656DBC
:1023040070204C4D33353A2025342E31664300413C
:102314006C7469747564653A2025362E31666D00D7
:10232400446174613A20253032752F253032752F7F
:102334002530347500486F72613A20253032753A81
:10234400253032753A253032750053656D616E6102
:102354003A202575004573746163616F2061746967
:04236400766100009E
:00000001FF
